{"address":"0x7722B77e691ceA11047f030f1b128432A1a6FfCA","bytecode":"0x6080604052606560075534801561001557600080fd5b506040516140b33803806140b38339810160408190526100349161013e565b338061005a57604051631e4fbdf760e01b81526000600482015260240160405180910390fd5b610063816100d2565b50600680546001600160a01b039b8c166001600160a01b031991821617909155600480549a8c169a82169a909a1790995560058054988b16988a1698909817909755600895909555600993909355600a91909155600b55600c55600d55600e80549190931691161790556101ce565b600080546001600160a01b038381166001600160a01b0319831681178455604051919092169283917f8be0079c531659141344cd1fd0a4f28419497f9722a3daafe3b4186f6b6457e09190a35050565b80516001600160a01b038116811461013957600080fd5b919050565b6000806000806000806000806000806101408b8d03121561015e57600080fd5b6101678b610122565b995061017560208c01610122565b985061018360408c01610122565b975060608b0151965060808b0151955060a08b0151945060c08b0151935060e08b015192506101008b015191506101bd6101208c01610122565b90509295989b9194979a5092959850565b613ed6806101dd6000396000f3fe6080604052600436106101095760003560e01c80638da5cb5b11610095578063d73792a911610064578063d73792a9146102e4578063dbb80e42146102fa578063f2fde38b1461030f578063f46901ed1461032f578063fb04c1fa1461034f57600080fd5b80638da5cb5b1461027357806394aed7d014610291578063a2e74af6146102a4578063cb102392146102c457600080fd5b806365dd0443116100dc57806365dd0443146101c6578063715018a6146101e85780637a6750cb146101fd5780637a76e5a41461021d57806383db2a211461023d57600080fd5b8063017e7e581461010e578063094b74151461014b5780632c12b4461461016b578063634282af146101a6575b600080fd5b34801561011a57600080fd5b5060045461012e906001600160a01b031681565b6040516001600160a01b0390911681526020015b60405180910390f35b34801561015757600080fd5b5060065461012e906001600160a01b031681565b34801561017757600080fd5b5061019861018636600461090b565b60026020526000908152604090205481565b604051908152602001610142565b3480156101b257600080fd5b5061012e6101c136600461093b565b61036f565b3480156101d257600080fd5b506101e66101e136600461093b565b610399565b005b3480156101f457600080fd5b506101e66103d1565b34801561020957600080fd5b506101e6610218366004610954565b6103e5565b34801561022957600080fd5b506101e661023836600461090b565b61040a565b34801561024957600080fd5b5061012e61025836600461090b565b6001602052600090815260409020546001600160a01b031681565b34801561027f57600080fd5b506000546001600160a01b031661012e565b61012e61029f366004610a3a565b610434565b3480156102b057600080fd5b506101e66102bf36600461090b565b610752565b3480156102d057600080fd5b5060055461012e906001600160a01b031681565b3480156102f057600080fd5b5061019860075481565b34801561030657600080fd5b50600354610198565b34801561031b57600080fd5b506101e661032a36600461090b565b61079e565b34801561033b57600080fd5b506101e661034a36600461090b565b6107dc565b34801561035b57600080fd5b506101e661036a36600461090b565b610828565b6003818154811061037f57600080fd5b6000918252602090912001546001600160a01b0316905081565b6006546001600160a01b031633146103cc5760405162461bcd60e51b81526004016103c390610ac2565b60405180910390fd5b600755565b6103d9610874565b6103e360006108a1565b565b6103ed610874565b600895909555600993909355600a91909155600b55600c55600d55565b610412610874565b600e80546001600160a01b0319166001600160a01b0392909216919091179055565b600080848460085485604051610449906108f1565b6104569493929190610b32565b604051809103906000f080158015610472573d6000803e3d6000fd5b509050600081600b54600954600a54600c54600d54600e60009054906101000a90046001600160a01b03166040516104a9906108fe565b6001600160a01b039788168152602081019690965260408601949094526060850192909252608084015260a083015290911660c082015260e001604051809103906000f0801580156104ff573d6000803e3d6000fd5b509050816001600160a01b031663a9059cbb82846001600160a01b03166318160ddd6040518163ffffffff1660e01b8152600401602060405180830381865afa158015610550573d6000803e3d6000fd5b505050506040513d601f19601f820116820180604052508101906105749190610b7c565b6040516001600160e01b031960e085901b1681526001600160a01b03909216600483015260248201526044016020604051808303816000875af11580156105bf573d6000803e3d6000fd5b505050506040513d601f19601f820116820180604052508101906105e39190610b95565b6106275760405162461bcd60e51b8152602060048201526015602482015274115490cc8c081d1c985b9cd9995c8819985a5b1959605a1b60448201526064016103c3565b6001600160a01b03828116600081815260016020818152604080842080546001600160a01b0319908116978916978817909155600b805488875260028552838720556003805495860181559095527fc2575a0e9e593c00f959f8c92f12db2869c3395a3b0502d05e2516446f71f85b90930180549093168517909255915490519081527ffde888083b38fe6deac8498d5daebda0d38d0d3e6167e434b633f955152766fa910160405180910390a334156107495760405163f088d54760e01b81523360048201526001600160a01b0382169063f088d54790349060240160206040518083038185885af1158015610722573d6000803e3d6000fd5b50505050506040513d601f19601f820116820180604052508101906107479190610b95565b505b50949350505050565b6006546001600160a01b0316331461077c5760405162461bcd60e51b81526004016103c390610ac2565b600680546001600160a01b0319166001600160a01b0392909216919091179055565b6107a6610874565b6001600160a01b0381166107d057604051631e4fbdf760e01b8152600060048201526024016103c3565b6107d9816108a1565b50565b6006546001600160a01b031633146108065760405162461bcd60e51b81526004016103c390610ac2565b600480546001600160a01b0319166001600160a01b0392909216919091179055565b6006546001600160a01b031633146108525760405162461bcd60e51b81526004016103c390610ac2565b600580546001600160a01b0319166001600160a01b0392909216919091179055565b6000546001600160a01b031633146103e35760405163118cdaa760e01b81523360048201526024016103c3565b600080546001600160a01b038381166001600160a01b0319831681178455604051919092169283917f8be0079c531659141344cd1fd0a4f28419497f9722a3daafe3b4186f6b6457e09190a35050565b610d2480610bb883390190565b6125c5806118dc83390190565b60006020828403121561091d57600080fd5b81356001600160a01b038116811461093457600080fd5b9392505050565b60006020828403121561094d57600080fd5b5035919050565b60008060008060008060c0878903121561096d57600080fd5b505084359660208601359650604086013595606081013595506080810135945060a0013592509050565b634e487b7160e01b600052604160045260246000fd5b600082601f8301126109be57600080fd5b813567ffffffffffffffff808211156109d9576109d9610997565b604051601f8301601f19908116603f01168101908282118183101715610a0157610a01610997565b81604052838152866020858801011115610a1a57600080fd5b836020870160208301376000602085830101528094505050505092915050565b600080600060608486031215610a4f57600080fd5b833567ffffffffffffffff80821115610a6757600080fd5b610a73878388016109ad565b94506020860135915080821115610a8957600080fd5b610a95878388016109ad565b93506040860135915080821115610aab57600080fd5b50610ab8868287016109ad565b9150509250925092565b60208082526010908201526f20a822ab189d102327a92124a22222a760811b604082015260600190565b6000815180845260005b81811015610b1257602081850181015186830182015201610af6565b506000602082860101526020601f19601f83011685010191505092915050565b608081526000610b456080830187610aec565b8281036020840152610b578187610aec565b90508460408401528281036060840152610b718185610aec565b979650505050505050565b600060208284031215610b8e57600080fd5b5051919050565b600060208284031215610ba757600080fd5b8151801515811461093457600080fdfe608060405234801561001057600080fd5b50604051610d24380380610d2483398101604081905261002f916102bb565b8383600361003d83826103d7565b50600461004a82826103d7565b5050506100793361005f61008f60201b60201c565b61006a90600a610592565b61007490856105a8565b610094565b600561008582826103d7565b50505050506105d2565b601290565b6001600160a01b0382166100c35760405163ec442f0560e01b8152600060048201526024015b60405180910390fd5b6100cf600083836100d3565b5050565b6001600160a01b0383166100fe5780600260008282546100f391906105bf565b909155506101709050565b6001600160a01b038316600090815260208190526040902054818110156101515760405163391434e360e21b81526001600160a01b038516600482015260248101829052604481018390526064016100ba565b6001600160a01b03841660009081526020819052604090209082900390555b6001600160a01b03821661018c576002805482900390556101ab565b6001600160a01b03821660009081526020819052604090208054820190555b816001600160a01b0316836001600160a01b03167fddf252ad1be2c89b69c2b068fc378daa952ba7f163c4a11628f55a4df523b3ef836040516101f091815260200190565b60405180910390a3505050565b634e487b7160e01b600052604160045260246000fd5b600082601f83011261022457600080fd5b81516001600160401b038082111561023e5761023e6101fd565b604051601f8301601f19908116603f01168101908282118183101715610266576102666101fd565b816040528381526020925086602085880101111561028357600080fd5b600091505b838210156102a55785820183015181830184015290820190610288565b6000602085830101528094505050505092915050565b600080600080608085870312156102d157600080fd5b84516001600160401b03808211156102e857600080fd5b6102f488838901610213565b9550602087015191508082111561030a57600080fd5b61031688838901610213565b945060408701519350606087015191508082111561033357600080fd5b5061034087828801610213565b91505092959194509250565b600181811c9082168061036057607f821691505b60208210810361038057634e487b7160e01b600052602260045260246000fd5b50919050565b601f8211156103d2576000816000526020600020601f850160051c810160208610156103af5750805b601f850160051c820191505b818110156103ce578281556001016103bb565b5050505b505050565b81516001600160401b038111156103f0576103f06101fd565b610404816103fe845461034c565b84610386565b602080601f83116001811461043957600084156104215750858301515b600019600386901b1c1916600185901b1785556103ce565b600085815260208120601f198616915b8281101561046857888601518255948401946001909101908401610449565b50858210156104865787850151600019600388901b60f8161c191681555b5050505050600190811b01905550565b634e487b7160e01b600052601160045260246000fd5b600181815b808511156104e75781600019048211156104cd576104cd610496565b808516156104da57918102915b93841c93908002906104b1565b509250929050565b6000826104fe5750600161058c565b8161050b5750600061058c565b8160018114610521576002811461052b57610547565b600191505061058c565b60ff84111561053c5761053c610496565b50506001821b61058c565b5060208310610133831016604e8410600b841016171561056a575081810a61058c565b61057483836104ac565b806000190482111561058857610588610496565b0290505b92915050565b60006105a160ff8416836104ef565b9392505050565b808202811582820484141761058c5761058c610496565b8082018082111561058c5761058c610496565b610743806105e16000396000f3fe608060405234801561001057600080fd5b506004361061009e5760003560e01c80633c130d90116100665780633c130d901461011857806370a082311461012057806395d89b4114610149578063a9059cbb14610151578063dd62ed3e1461016457600080fd5b806306fdde03146100a3578063095ea7b3146100c157806318160ddd146100e457806323b872dd146100f6578063313ce56714610109575b600080fd5b6100ab61019d565b6040516100b8919061058c565b60405180910390f35b6100d46100cf3660046105f7565b61022f565b60405190151581526020016100b8565b6002545b6040519081526020016100b8565b6100d4610104366004610621565b610249565b604051601281526020016100b8565b6100ab61026d565b6100e861012e36600461065d565b6001600160a01b031660009081526020819052604090205490565b6100ab61027c565b6100d461015f3660046105f7565b61028b565b6100e861017236600461067f565b6001600160a01b03918216600090815260016020908152604080832093909416825291909152205490565b6060600380546101ac906106b2565b80601f01602080910402602001604051908101604052809291908181526020018280546101d8906106b2565b80156102255780601f106101fa57610100808354040283529160200191610225565b820191906000526020600020905b81548152906001019060200180831161020857829003601f168201915b5050505050905090565b60003361023d818585610299565b60019150505b92915050565b6000336102578582856102ab565b61026285858561032e565b506001949350505050565b6060600580546101ac906106b2565b6060600480546101ac906106b2565b60003361023d81858561032e565b6102a6838383600161038d565b505050565b6001600160a01b038381166000908152600160209081526040808320938616835292905220546000198114610328578181101561031957604051637dc7a0d960e11b81526001600160a01b038416600482015260248101829052604481018390526064015b60405180910390fd5b6103288484848403600061038d565b50505050565b6001600160a01b03831661035857604051634b637e8f60e11b815260006004820152602401610310565b6001600160a01b0382166103825760405163ec442f0560e01b815260006004820152602401610310565b6102a6838383610462565b6001600160a01b0384166103b75760405163e602df0560e01b815260006004820152602401610310565b6001600160a01b0383166103e157604051634a1406b160e11b815260006004820152602401610310565b6001600160a01b038085166000908152600160209081526040808320938716835292905220829055801561032857826001600160a01b0316846001600160a01b03167f8c5be1e5ebec7d5bd14f71427d1e84f3dd0314c0f7b2291e5b200ac8c7c3b9258460405161045491815260200190565b60405180910390a350505050565b6001600160a01b03831661048d57806002600082825461048291906106ec565b909155506104ff9050565b6001600160a01b038316600090815260208190526040902054818110156104e05760405163391434e360e21b81526001600160a01b03851660048201526024810182905260448101839052606401610310565b6001600160a01b03841660009081526020819052604090209082900390555b6001600160a01b03821661051b5760028054829003905561053a565b6001600160a01b03821660009081526020819052604090208054820190555b816001600160a01b0316836001600160a01b03167fddf252ad1be2c89b69c2b068fc378daa952ba7f163c4a11628f55a4df523b3ef8360405161057f91815260200190565b60405180910390a3505050565b60006020808352835180602085015260005b818110156105ba5785810183015185820160400152820161059e565b506000604082860101526040601f19601f8301168501019250505092915050565b80356001600160a01b03811681146105f257600080fd5b919050565b6000806040838503121561060a57600080fd5b610613836105db565b946020939093013593505050565b60008060006060848603121561063657600080fd5b61063f846105db565b925061064d602085016105db565b9150604084013590509250925092565b60006020828403121561066f57600080fd5b610678826105db565b9392505050565b6000806040838503121561069257600080fd5b61069b836105db565b91506106a9602084016105db565b90509250929050565b600181811c908216806106c657607f821691505b6020821081036106e657634e487b7160e01b600052602260045260246000fd5b50919050565b8082018082111561024357634e487b7160e01b600052601160045260246000fdfea2646970667358221220dec83b9540ddf6ada18b811ed57d74cbff8c2b6c1067563f8697c7d61ac03f0864736f6c634300081900336101006040526005805460ff60a01b1916600160a01b17905534801561002457600080fd5b506040516125c53803806125c5833981016040819052610043916100c2565b6001600081905560a095909552608084905292909355600293909355600380546001600160a01b039586166001600160a01b03199182161790915560c09390935260e0919091526005805483163317905560048054919093169116179055610125565b80516001600160a01b03811681146100bd57600080fd5b919050565b600080600080600080600060e0888a0312156100dd57600080fd5b6100e6886100a6565b96506020880151955060408801519450606088015193506080880151925060a0880151915061011760c089016100a6565b905092959891949750929550565b60805160a05160c05160e05161246361016260003960006103890152600081816103aa01526114b4015260006103440152600050506124636000f3fe6080604052600436106100c25760003560e01c806395eed5241161007f578063c45a015511610059578063c45a0155146101e1578063e4849b3214610201578063f088d54714610221578063f1cbc3891461023457600080fd5b806395eed524146101a357806396365d44146101c3578063a6f2ae3a146101d957600080fd5b806302fb0c5e146100c75780630c7d5cd8146100fd5780631694505e146101215780632b112e49146101595780635ad101411461016e57806381c3ae3a14610183575b600080fd5b3480156100d357600080fd5b506005546100e890600160a01b900460ff1681565b60405190151581526020015b60405180910390f35b34801561010957600080fd5b5061011360025481565b6040519081526020016100f4565b34801561012d57600080fd5b50600454610141906001600160a01b031681565b6040516001600160a01b0390911681526020016100f4565b34801561016557600080fd5b50610113610254565b34801561017a57600080fd5b5061011361037e565b34801561018f57600080fd5b5061011361019e36600461213d565b6103dd565b3480156101af57600080fd5b506101136101be36600461213d565b610578565b3480156101cf57600080fd5b5061011360015481565b6100e8610681565b3480156101ed57600080fd5b50600554610141906001600160a01b031681565b34801561020d57600080fd5b506100e861021c36600461216f565b6106a0565b6100e861022f36600461219d565b6109dd565b34801561024057600080fd5b5061011361024f36600461213d565b610a4c565b600080600360009054906101000a90046001600160a01b03166001600160a01b03166318160ddd6040518163ffffffff1660e01b8152600401602060405180830381865afa1580156102aa573d6000803e3d6000fd5b505050506040513d601f19601f820116820180604052508101906102ce91906121ba565b6003546040516370a0823160e01b81523060048201529192506000916001600160a01b03909116906370a0823190602401602060405180830381865afa15801561031c573d6000803e3d6000fd5b505050506040513d601f19601f8201168201806040525081019061034091906121ba565b90507f000000000000000000000000000000000000000000000000000000000000000061036d82846121e9565b61037791906121fc565b9250505090565b6001546000906103ce7f00000000000000000000000000000000000000000000000000000000000000007f00000000000000000000000000000000000000000000000000000000000000006121fc565b6103d891906121e9565b905090565b60008085116104075760405162461bcd60e51b81526004016103fe9061220f565b60405180910390fd5b600084116104275760405162461bcd60e51b81526004016103fe90612246565b600083116104475760405162461bcd60e51b81526004016103fe9061228a565b620f424083111561046a5760405162461bcd60e51b81526004016103fe906122ce565b848211156104c85760405162461bcd60e51b815260206004820152602560248201527f417065466f726d756c613a2053656c6c20416d6f756e74206e6f74203c3d20536044820152647570706c7960d81b60648201526084016103fe565b816000036104d857506000610570565b8482036104e6575082610570565b620f424083036105135761050c6105098661050385885b90610b42565b90610b58565b90565b9050610570565b60008061052b61052585895b90610b70565b88610503565b9050600061053d865b620f4240610503565b90506105498282610b7f565b9250600061055784896104fd565b905087610568856105038484610b70565b955050505050505b949350505050565b60008085116105995760405162461bcd60e51b81526004016103fe9061220f565b600084116105b95760405162461bcd60e51b81526004016103fe90612246565b600083116105d95760405162461bcd60e51b81526004016103fe9061228a565b620f42408311156105fc5760405162461bcd60e51b81526004016103fe906122ce565b8160000361060c57506000610570565b620f424083036106275761050c6105098561050385896104fd565b60008061063a86610503885b8790610c92565b9050600061064b620f424087610503565b90506106578282610b7f565b92506106678861051f858b6104fd565b92506106756103e8846121e9565b98975050505050505050565b600061068b610ca1565b61069433610ccb565b90506105096001600055565b60006106aa610ca1565b600554600160a01b900460ff166107035760405162461bcd60e51b815260206004820152601c60248201527f626f6e64696e67206375727665206d757374206265206163746976650000000060448201526064016103fe565b6000821161071057600080fd5b600061071a610254565b9050600061072e82600154600254876103dd565b90506001548111156107975760405162461bcd60e51b815260206004820152602c60248201527f426f6e64696e6720637572766520646f6573206e6f742068617665207375666660448201526b696369656e742066756e647360a01b60648201526084016103fe565b6005546040805163d73792a960e01b815290516000926001600160a01b03169163d73792a9916004808301926020929190829003018187875af11580156107e2573d6000803e3d6000fd5b505050506040513d601f19601f8201168201806040525081019061080691906121ba565b905060006108148284612332565b9050600061082282856121e9565b9050836001600082825461083691906121e9565b9091555050604051339082156108fc029083906000818181858888f19350505050158015610868573d6000803e3d6000fd5b506003546040516323b872dd60e01b8152336004820152306024820152604481018990526001600160a01b03909116906323b872dd906064016020604051808303816000875af11580156108c0573d6000803e3d6000fd5b505050506040513d601f19601f820116820180604052508101906108e49190612354565b6108ed57600080fd5b60055460408051622fcfcb60e31b815290516000926001600160a01b03169163017e7e58916004808301926020929190829003018187875af1158015610937573d6000803e3d6000fd5b505050506040513d601f19601f8201168201806040525081019061095b9190612376565b6040519091506001600160a01b0382169084156108fc029085906000818181858888f19350505050158015610994573d6000803e3d6000fd5b50604051339086908a907f5d1c2d759096f0ef55b62650e84217f2e990cfd22675562df8f4627367a3fb0f90600090a4600196505050505050506109d86001600055565b919050565b60006109e7610ca1565b6005546001600160a01b03163314610a375760405162461bcd60e51b8152602060048201526013602482015272596f7520617265206e6f7420666163746f727960681b60448201526064016103fe565b610a4082610ccb565b90506109d86001600055565b6000808511610a6d5760405162461bcd60e51b81526004016103fe9061220f565b60008411610a8d5760405162461bcd60e51b81526004016103fe90612246565b60008311610aad5760405162461bcd60e51b81526004016103fe9061228a565b620f4240831115610ad05760405162461bcd60e51b81526004016103fe906122ce565b81600003610ae057506000610570565b620f42408303610afb5761050c6105098661050387866104fd565b600080610b0b8761050389610633565b90506000610b1886610534565b9050610b248282610b7f565b9250610b348761051f858a6104fd565b9250610675836103e86121fc565b6000610b516105098484611141565b9392505050565b6000610b5161050984670de0b6b3a7640000856111f7565b6000610b5161050983856121e9565b60008282818303610baa578015610b97576000610ba1565b670de0b6b3a76400005b92505050610c8c565b670de0b6b3a76400008203610bcb57670de0b6b3a764000092505050610c8c565b80600003610be557670de0b6b3a764000092505050610c8c565b670de0b6b3a76400008103610bfe578492505050610c8c565b670de0b6b3a7640000821115610c2f57610c28610c23610c1d876112ca565b86610b42565b6113fd565b9250610c89565b6000610c4d610509846ec097ce7bc90715b34b9f1000000000612332565b90506000610c66610c23610c60846112ca565b88610b42565b9050610c84610509826ec097ce7bc90715b34b9f1000000000612332565b945050505b50505b92915050565b6000610b5161050983856121fc565b600260005403610cc457604051633ee5aeb560e01b815260040160405180910390fd5b6002600055565b600554600090600160a01b900460ff16610d275760405162461bcd60e51b815260206004820152601c60248201527f626f6e64696e67206375727665206d757374206265206163746976650000000060448201526064016103fe565b60003411610d3457600080fd5b6005546040805163d73792a960e01b815290516000926001600160a01b03169163d73792a9916004808301926020929190829003018187875af1158015610d7f573d6000803e3d6000fd5b505050506040513d601f19601f82011682018060405250810190610da391906121ba565b90506000610db18234612332565b90506000610dbf82346121e9565b90506000806000610dce61037e565b9050808410610e2d5760006064610de58884612393565b610def9190612332565b9050610dfb8782612332565b9550610e0786826121e9565b9450610e1381346121e9565b935060019250610e2b6005805460ff60a01b19169055565b505b6000610e37610254565b90506000610e4b8260015460025489610578565b9050610e7f6040518060400160405280601081526020016f3a37b5b2b739aa37aa3930b739b332b960811b81525082611453565b8560016000828254610e9191906121fc565b909155505060035460405163a9059cbb60e01b81526001600160a01b038c81166004830152602482018490529091169063a9059cbb906044016020604051808303816000875af1158015610ee9573d6000803e3d6000fd5b505050506040513d601f19601f82011682018060405250810190610f0d9190612354565b610f515760405162461bcd60e51b8152602060048201526015602482015274115490cc8c081d1c985b9cd9995c8819985a5b1959605a1b60448201526064016103fe565b60055460408051622fcfcb60e31b815290516000926001600160a01b03169163017e7e58916004808301926020929190829003018187875af1158015610f9b573d6000803e3d6000fd5b505050506040513d601f19601f82011682018060405250810190610fbf9190612376565b6040519091506001600160a01b0382169089156108fc02908a906000818181858888f19350505050158015610ff8573d6000803e3d6000fd5b508515611037576040516001600160a01b038c169087156108fc029088906000818181858888f19350505050158015611035573d6000803e3d6000fd5b505b8a6001600160a01b031687837fe90f4380d5697d5c874dc3e4ffa51f5aafe64580cf929955eb2006df721e215d60405160405180910390a484156111305761107d61149c565b600560009054906101000a90046001600160a01b03166001600160a01b031663cb1023926040518163ffffffff1660e01b81526004016020604051808303816000875af11580156110d2573d6000803e3d6000fd5b505050506040513d601f19601f820116820180604052508101906110f69190612376565b6001600160a01b03166108fc479081150290604051600060405180830381858888f1935050505015801561112e573d6000803e3d6000fd5b505b5060019a9950505050505050505050565b60008080600019848609848602925082811083820303915050806000036111755750670de0b6b3a764000090049050610c8c565b670de0b6b3a764000081106111a757604051635173648d60e01b815260048101869052602481018590526044016103fe565b6000670de0b6b3a764000085870962040000818503049310909103600160ee1b02919091177faccb18165bd6fe31ae1cf318dc5b51eee0e1ba569b88cd74c1773b91fac106690291505092915050565b6000808060001985870985870292508281108382030391505080600003611231578382816112275761122761231c565b0492505050610b51565b83811061126257604051630c740aef60e31b81526004810187905260248101869052604481018590526064016103fe565b600084868809600260036001881981018916988990049182028318808302840302808302840302808302840302808302840302808302840302918202909203026000889003889004909101858311909403939093029303949094049190911702949350505050565b600081670de0b6b3a76400008110156112f95760405163036d32ef60e41b8152600481018490526024016103fe565b6000611385670de0b6b3a7640000830460016fffffffffffffffffffffffffffffffff821160071b91821c67ffffffffffffffff811160061b90811c63ffffffff811160051b90811c61ffff811160041b90811c60ff8111600390811b91821c600f811160021b90811c918211871b91821c969096119490961792909217171791909117919091171790565b9050670de0b6b3a7640000810282821c670de0b6b3a763ffff1981016113ae5750949350505050565b671bc16d674ec800006706f05b59d3b200005b80156113f157670de0b6b3a76400008380020492508183106113e9579283019260019290921c915b60011c6113c1565b50919695505050505050565b600081680a688906bd8affffff81111561142d5760405163b3b6ba1f60e01b8152600481018490526024016103fe565b6000611445670de0b6b3a7640000604084901b612332565b9050610570610509826119b0565b61149882826040516024016114699291906123aa565b60408051601f198184030181529190526020810180516001600160e01b0316632d839cb360e21b179052612110565b5050565b6003546040516370a0823160e01b81523060048201527f0000000000000000000000000000000000000000000000000000000000000000916000916001600160a01b03909116906370a0823190602401602060405180830381865afa158015611509573d6000803e3d6000fd5b505050506040513d601f19601f8201168201806040525081019061152d91906121ba565b6003546004805460405163095ea7b360e01b81526001600160a01b03918216928101929092526024820184905292935091169063095ea7b3906044016020604051808303816000875af1158015611588573d6000803e3d6000fd5b505050506040513d601f19601f820116820180604052508101906115ac9190612354565b6115e95760405162461bcd60e51b815260206004820152600e60248201526d105c1c1c9bdd994819985a5b195960921b60448201526064016103fe565b814710156116395760405162461bcd60e51b815260206004820152601860248201527f496e73756666696369656e74204554482062616c616e6365000000000000000060448201526064016103fe565b6004805460035460405163f305d71960e01b81526001600160a01b03918216938101939093526024830184905260006044840181905260648401523060848401524260a4840152169063f305d71990849060c40160606040518083038185885af11580156116ab573d6000803e3d6000fd5b50505050506040513d601f19601f820116820180604052508101906116d091906123ff565b505060048054604080516315ab88c960e31b81529051600094506001600160a01b039092169263ad5c46489282820192602092908290030181865afa15801561171d573d6000803e3d6000fd5b505050506040513d601f19601f820116820180604052508101906117419190612376565b90506000600460009054906101000a90046001600160a01b03166001600160a01b031663c45a01556040518163ffffffff1660e01b8152600401602060405180830381865afa158015611798573d6000803e3d6000fd5b505050506040513d601f19601f820116820180604052508101906117bc9190612376565b60035460405163e6a4390560e01b81526001600160a01b03858116600483015291821660248201529192506000919083169063e6a4390590604401602060405180830381865afa158015611814573d6000803e3d6000fd5b505050506040513d601f19601f820116820180604052508101906118389190612376565b6040516370a0823160e01b81523060048201529091506000906001600160a01b0383169063a9059cbb90839083906370a0823190602401602060405180830381865afa15801561188c573d6000803e3d6000fd5b505050506040513d601f19601f820116820180604052508101906118b091906121ba565b6040516001600160e01b031960e085901b1681526001600160a01b03909216600483015260248201526044016020604051808303816000875af11580156118fb573d6000803e3d6000fd5b505050506040513d601f19601f8201168201806040525081019061191f9190612354565b90508061196e5760405162461bcd60e51b815260206004820152601d60248201527f4c697175696469747920506f6f6c206275726e696e67206661696c656400000060448201526064016103fe565b6003546040516001600160a01b038085169216907f8e2ea583453f51c2e9e0d38b9f7c8426e5bd6f018f3ea0f0e1a06553cdd40e2e90600090a3505050505050565b600160bf1b67ff00000000000000821615611abd576780000000000000008216156119e45768016a09e667f3bcc9090260401c5b674000000000000000821615611a03576801306fe0a31b7152df0260401c5b672000000000000000821615611a22576801172b83c7d517adce0260401c5b671000000000000000821615611a415768010b5586cf9890f62a0260401c5b670800000000000000821615611a60576801059b0d31585743ae0260401c5b670400000000000000821615611a7f57680102c9a3e778060ee70260401c5b670200000000000000821615611a9e5768010163da9fb33356d80260401c5b670100000000000000821615611abd57680100b1afa5abcbed610260401c5b66ff000000000000821615611bbc576680000000000000821615611aea5768010058c86da1c09ea20260401c5b6640000000000000821615611b08576801002c605e2e8cec500260401c5b6620000000000000821615611b2657680100162f3904051fa10260401c5b6610000000000000821615611b44576801000b175effdc76ba0260401c5b6608000000000000821615611b6257680100058ba01fb9f96d0260401c5b6604000000000000821615611b805768010002c5cc37da94920260401c5b6602000000000000821615611b9e576801000162e525ee05470260401c5b6601000000000000821615611bbc5768010000b17255775c040260401c5b65ff0000000000821615611cb25765800000000000821615611be7576801000058b91b5bc9ae0260401c5b65400000000000821615611c0457680100002c5c89d5ec6d0260401c5b65200000000000821615611c215768010000162e43f4f8310260401c5b65100000000000821615611c3e57680100000b1721bcfc9a0260401c5b65080000000000821615611c5b5768010000058b90cf1e6e0260401c5b65040000000000821615611c78576801000002c5c863b73f0260401c5b65020000000000821615611c9557680100000162e430e5a20260401c5b65010000000000821615611cb2576801000000b1721835510260401c5b64ff00000000821615611d9f57648000000000821615611cdb57680100000058b90c0b490260401c5b644000000000821615611cf75768010000002c5c8601cc0260401c5b642000000000821615611d13576801000000162e42fff00260401c5b641000000000821615611d2f5768010000000b17217fbb0260401c5b640800000000821615611d4b576801000000058b90bfce0260401c5b640400000000821615611d6757680100000002c5c85fe30260401c5b640200000000821615611d835768010000000162e42ff10260401c5b640100000000821615611d9f57680100000000b17217f80260401c5b63ff000000821615611e83576380000000821615611dc65768010000000058b90bfc0260401c5b6340000000821615611de1576801000000002c5c85fe0260401c5b6320000000821615611dfc57680100000000162e42ff0260401c5b6310000000821615611e17576801000000000b17217f0260401c5b6308000000821615611e3257680100000000058b90c00260401c5b6304000000821615611e4d5768010000000002c5c8600260401c5b6302000000821615611e68576801000000000162e4300260401c5b6301000000821615611e835768010000000000b172180260401c5b62ff0000821615611f5e5762800000821615611ea8576801000000000058b90c0260401c5b62400000821615611ec257680100000000002c5c860260401c5b62200000821615611edc5768010000000000162e430260401c5b62100000821615611ef657680100000000000b17210260401c5b62080000821615611f105768010000000000058b910260401c5b62040000821615611f2a576801000000000002c5c80260401c5b62020000821615611f4457680100000000000162e40260401c5b62010000821615611f5e576801000000000000b1720260401c5b61ff0082161561203057618000821615611f8157680100000000000058b90260401c5b614000821615611f9a5768010000000000002c5d0260401c5b612000821615611fb3576801000000000000162e0260401c5b611000821615611fcc5768010000000000000b170260401c5b610800821615611fe5576801000000000000058c0260401c5b610400821615611ffe57680100000000000002c60260401c5b61020082161561201757680100000000000001630260401c5b61010082161561203057680100000000000000b10260401c5b60ff8216156120f957608082161561205157680100000000000000590260401c5b6040821615612069576801000000000000002c0260401c5b602082161561208157680100000000000000160260401c5b6010821615612099576801000000000000000b0260401c5b60088216156120b157680100000000000000060260401c5b60048216156120c957680100000000000000030260401c5b60028216156120e157680100000000000000010260401c5b60018216156120f957680100000000000000010260401c5b670de0b6b3a76400000260409190911c60bf031c90565b6121198161211c565b50565b60006a636f6e736f6c652e6c6f679050600080835160208501845afa505050565b6000806000806080858703121561215357600080fd5b5050823594602084013594506040840135936060013592509050565b60006020828403121561218157600080fd5b5035919050565b6001600160a01b038116811461211957600080fd5b6000602082840312156121af57600080fd5b8135610b5181612188565b6000602082840312156121cc57600080fd5b5051919050565b634e487b7160e01b600052601160045260246000fd5b81810381811115610c8c57610c8c6121d3565b80820180821115610c8c57610c8c6121d3565b6020808252601b908201527f417065466f726d756c613a20537570706c79206e6f74203e20302e0000000000604082015260600190565b60208082526024908201527f417065466f726d756c613a20436f6e6e6563746f7242616c616e6365206e6f746040820152630203e20360e41b606082015260800190565b60208082526024908201527f417065466f726d756c613a20436f6e6e6563746f7220576569676874206e6f746040820152630203e20360e41b606082015260800190565b6020808252602e908201527f417065466f726d756c613a20436f6e6e6563746f7220576569676874206e6f7460408201526d080f0f4813505617d5d15251d21560921b606082015260800190565b634e487b7160e01b600052601260045260246000fd5b60008261234f57634e487b7160e01b600052601260045260246000fd5b500490565b60006020828403121561236657600080fd5b81518015158114610b5157600080fd5b60006020828403121561238857600080fd5b8151610b5181612188565b8082028115828204841417610c8c57610c8c6121d3565b604081526000835180604084015260005b818110156123d857602081870181015160608684010152016123bb565b506000606082850101526060601f19601f8301168401019150508260208301529392505050565b60008060006060848603121561241457600080fd5b835192506020840151915060408401519050925092509256fea2646970667358221220ebf0265f81361e71655f6a87540afeefdad51638a0398018be6f656cad3d759d64736f6c63430008190033a2646970667358221220a39dba5da44d53aa505efdfd541b17cc0554f034630d4e52fa2a61204345796764736f6c63430008190033","abi":[{"inputs":[{"internalType":"address","name":"_feeToSetter","type":"address"},{"internalType":"address","name":"_feeTo","type":"address"},{"internalType":"address","name":"_liquidityFeeTo","type":"address"},{"internalType":"uint256","name":"_totalTokenSupply","type":"uint256"},{"internalType":"uint256","name":"_initialTokenSupply","type":"uint256"},{"internalType":"uint256","name":"_initialPoolBalance","type":"uint256"},{"internalType":"uint256","name":"_standardReserveRatio","type":"uint256"},{"internalType":"uint256","name":"_lpTransferEthAmount","type":"uint256"},{"internalType":"uint256","name":"_lpTransferFeeAmount","type":"uint256"},{"internalType":"address","name":"_uniswapV2RouterAddress","type":"address"}],"stateMutability":"nonpayable","type":"constructor"},{"inputs":[{"internalType":"address","name":"owner","type":"address"}],"name":"OwnableInvalidOwner","type":"error"},{"inputs":[{"internalType":"address","name":"account","type":"address"}],"name":"OwnableUnauthorizedAccount","type":"error"},{"anonymous":false,"inputs":[{"indexed":true,"internalType":"address","name":"previousOwner","type":"address"},{"indexed":true,"internalType":"address","name":"newOwner","type":"address"}],"name":"OwnershipTransferred","type":"event"},{"anonymous":false,"inputs":[{"indexed":true,"internalType":"address","name":"token","type":"address"},{"indexed":true,"internalType":"address","name":"bondingCurve","type":"address"},{"indexed":false,"internalType":"uint256","name":"reserveRatio","type":"uint256"}],"name":"TokenCreated","type":"event"},{"inputs":[],"name":"FEE_DENOMINATOR","outputs":[{"internalType":"uint256","name":"","type":"uint256"}],"stateMutability":"view","type":"function"},{"inputs":[{"internalType":"uint256","name":"","type":"uint256"}],"name":"allTokens","outputs":[{"internalType":"address","name":"","type":"address"}],"stateMutability":"view","type":"function"},{"inputs":[],"name":"allTokensLength","outputs":[{"internalType":"uint256","name":"","type":"uint256"}],"stateMutability":"view","type":"function"},{"inputs":[{"internalType":"string","name":"name","type":"string"},{"internalType":"string","name":"symbol","type":"string"},{"internalType":"string","name":"tokenURI","type":"string"}],"name":"createToken","outputs":[{"internalType":"address","name":"","type":"address"}],"stateMutability":"payable","type":"function"},{"inputs":[],"name":"feeTo","outputs":[{"internalType":"address","name":"","type":"address"}],"stateMutability":"view","type":"function"},{"inputs":[],"name":"feeToSetter","outputs":[{"internalType":"address","name":"","type":"address"}],"stateMutability":"view","type":"function"},{"inputs":[{"internalType":"address","name":"","type":"address"}],"name":"getBondingCurve","outputs":[{"internalType":"address","name":"","type":"address"}],"stateMutability":"view","type":"function"},{"inputs":[{"internalType":"address","name":"","type":"address"}],"name":"getReserveRatio","outputs":[{"internalType":"uint256","name":"","type":"uint256"}],"stateMutability":"view","type":"function"},{"inputs":[],"name":"liquidityFeeTo","outputs":[{"internalType":"address","name":"","type":"address"}],"stateMutability":"view","type":"function"},{"inputs":[],"name":"owner","outputs":[{"internalType":"address","name":"","type":"address"}],"stateMutability":"view","type":"function"},{"inputs":[],"name":"renounceOwnership","outputs":[],"stateMutability":"nonpayable","type":"function"},{"inputs":[{"internalType":"uint256","name":"_totalTokenSupply","type":"uint256"},{"internalType":"uint256","name":"_initialTokenSupply","type":"uint256"},{"internalType":"uint256","name":"_initialPoolBalance","type":"uint256"},{"internalType":"uint256","name":"_standardReserveRatio","type":"uint256"},{"internalType":"uint256","name":"_lpTransferEthAmount","type":"uint256"},{"internalType":"uint256","name":"_lpTransferFeeAmount","type":"uint256"}],"name":"setBondingCurveCurveVariables","outputs":[],"stateMutability":"nonpayable","type":"function"},{"inputs":[{"internalType":"address","name":"_feeTo","type":"address"}],"name":"setFeeTo","outputs":[],"stateMutability":"nonpayable","type":"function"},{"inputs":[{"internalType":"address","name":"_feeToSetter","type":"address"}],"name":"setFeeToSetter","outputs":[],"stateMutability":"nonpayable","type":"function"},{"inputs":[{"internalType":"address","name":"_uniswapV2RouterAddress","type":"address"}],"name":"setLPRouterAddress","outputs":[],"stateMutability":"nonpayable","type":"function"},{"inputs":[{"internalType":"address","name":"_liquidityFeeTo","type":"address"}],"name":"setLiquidityFeeTo","outputs":[],"stateMutability":"nonpayable","type":"function"},{"inputs":[{"internalType":"uint256","name":"_feeDenominator","type":"uint256"}],"name":"setfeeDenominator","outputs":[],"stateMutability":"nonpayable","type":"function"},{"inputs":[{"internalType":"address","name":"newOwner","type":"address"}],"name":"transferOwnership","outputs":[],"stateMutability":"nonpayable","type":"function"}]}